{
    "contractName": "Sifrasia",
    "abi": [
        {
            "anonymous": false,
            "inputs": [
                {
                    "indexed": false,
                    "name": "_owner",
                    "type": "address"
                },
                {
                    "indexed": false,
                    "name": "_index",
                    "type": "uint256"
                },
                {
                    "indexed": false,
                    "name": "_name",
                    "type": "string"
                },
                {
                    "indexed": false,
                    "name": "_description",
                    "type": "string"
                },
                {
                    "indexed": false,
                    "name": "_colorHex",
                    "type": "string"
                }
            ],
            "name": "CryptogotchiHatched",
            "type": "event"
        },
        {
            "constant": false,
            "inputs": [
                {
                    "name": "_name",
                    "type": "string"
                },
                {
                    "name": "_description",
                    "type": "string"
                },
                {
                    "name": "_colorHex",
                    "type": "string"
                }
            ],
            "name": "hatchCryptogotchi",
            "outputs": [],
            "payable": false,
            "stateMutability": "nonpayable",
            "type": "function"
        },
        {
            "constant": true,
            "inputs": [
                {
                    "name": "_owner",
                    "type": "address"
                }
            ],
            "name": "getCryptogotchiByAddress",
            "outputs": [
                {
                    "name": "",
                    "type": "address"
                },
                {
                    "name": "",
                    "type": "uint256"
                },
                {
                    "name": "",
                    "type": "string"
                },
                {
                    "name": "",
                    "type": "string"
                },
                {
                    "name": "",
                    "type": "string"
                }
            ],
            "payable": false,
            "stateMutability": "view",
            "type": "function"
        },
        {
            "constant": true,
            "inputs": [
                {
                    "name": "_index",
                    "type": "uint256"
                }
            ],
            "name": "getCryptogotchiByIndex",
            "outputs": [
                {
                    "name": "",
                    "type": "address"
                },
                {
                    "name": "",
                    "type": "uint256"
                },
                {
                    "name": "",
                    "type": "string"
                },
                {
                    "name": "",
                    "type": "string"
                },
                {
                    "name": "",
                    "type": "string"
                }
            ],
            "payable": false,
            "stateMutability": "view",
            "type": "function"
        },
        {
            "constant": true,
            "inputs": [],
            "name": "getCryptogotchiPopulationTotal",
            "outputs": [
                {
                    "name": "",
                    "type": "uint256"
                }
            ],
            "payable": false,
            "stateMutability": "view",
            "type": "function"
        }
    ],
    "bytecode": "0x608060405234801561001057600080fd5b50610fb7806100206000396000f300608060405260043610610062576000357c0100000000000000000000000000000000000000000000000000000000900463ffffffff16806313a65101146100675780631cdf5e8214610092578063dec6f4981461024a578063fe1a19d01461033f575b600080fd5b34801561007357600080fd5b5061007c61050d565b6040518082815260200191505060405180910390f35b34801561009e57600080fd5b506100bd6004803603810190808035906020019092919050505061051a565b604051808673ffffffffffffffffffffffffffffffffffffffff1673ffffffffffffffffffffffffffffffffffffffff168152602001858152602001806020018060200180602001848103845287818151815260200191508051906020019080838360005b8381101561013d578082015181840152602081019050610122565b50505050905090810190601f16801561016a5780820380516001836020036101000a031916815260200191505b50848103835286818151815260200191508051906020019080838360005b838110156101a3578082015181840152602081019050610188565b50505050905090810190601f1680156101d05780820380516001836020036101000a031916815260200191505b50848103825285818151815260200191508051906020019080838360005b838110156102095780820151818401526020810190506101ee565b50505050905090810190601f1680156102365780820380516001836020036101000a031916815260200191505b509850505050505050505060405180910390f35b34801561025657600080fd5b5061033d600480360381019080803590602001908201803590602001908080601f0160208091040260200160405190810160405280939291908181526020018383808284378201915050505050509192919290803590602001908201803590602001908080601f0160208091040260200160405190810160405280939291908181526020018383808284378201915050505050509192919290803590602001908201803590602001908080601f0160208091040260200160405190810160405280939291908181526020018383808284378201915050505050509192919290505050610752565b005b34801561034b57600080fd5b50610380600480360381019080803573ffffffffffffffffffffffffffffffffffffffff169060200190929190505050610bc8565b604051808673ffffffffffffffffffffffffffffffffffffffff1673ffffffffffffffffffffffffffffffffffffffff168152602001858152602001806020018060200180602001848103845287818151815260200191508051906020019080838360005b838110156104005780820151818401526020810190506103e5565b50505050905090810190601f16801561042d5780820380516001836020036101000a031916815260200191505b50848103835286818151815260200191508051906020019080838360005b8381101561046657808201518184015260208101905061044b565b50505050905090810190601f1680156104935780820380516001836020036101000a031916815260200191505b50848103825285818151815260200191508051906020019080838360005b838110156104cc5780820151818401526020810190506104b1565b50505050905090810190601f1680156104f95780820380516001836020036101000a031916815260200191505b509850505050505050505060405180910390f35b6000600180549050905090565b6000806060806060600060018781548110151561053357fe5b9060005260206000200160009054906101000a900473ffffffffffffffffffffffffffffffffffffffff1690503073ffffffffffffffffffffffffffffffffffffffff1663fe1a19d0826040518263ffffffff167c0100000000000000000000000000000000000000000000000000000000028152600401808273ffffffffffffffffffffffffffffffffffffffff1673ffffffffffffffffffffffffffffffffffffffff168152602001915050600060405180830381600087803b1580156105fb57600080fd5b505af115801561060f573d6000803e3d6000fd5b505050506040513d6000823e3d601f19601f8201168201806040525060a081101561063957600080fd5b810190808051906020019092919080519060200190929190805164010000000081111561066557600080fd5b8281019050602081018481111561067b57600080fd5b815185600182028301116401000000008211171561069857600080fd5b505092919060200180516401000000008111156106b457600080fd5b828101905060208101848111156106ca57600080fd5b81518560018202830111640100000000821117156106e757600080fd5b5050929190602001805164010000000081111561070357600080fd5b8281019050602081018481111561071957600080fd5b815185600182028301116401000000008211171561073657600080fd5b5050929190505050955095509550955095505091939590929450565b61075a610ea0565b6000806000803373ffffffffffffffffffffffffffffffffffffffff1673ffffffffffffffffffffffffffffffffffffffff16815260200190815260200160002060020180546001816001161561010002031660029004905014151561084e576040517f08c379a00000000000000000000000000000000000000000000000000000000081526004018080602001828103825260218152602001807f53656e64657220616c72656164792068617320612043727970746f676f74636881526020017f690000000000000000000000000000000000000000000000000000000000000081525060400191505060405180910390fd5b60018054905090508082602001818152505033826000019073ffffffffffffffffffffffffffffffffffffffff16908173ffffffffffffffffffffffffffffffffffffffff1681525050848260400181905250838260600181905250828260800181905250816000803373ffffffffffffffffffffffffffffffffffffffff1673ffffffffffffffffffffffffffffffffffffffff16815260200190815260200160002060008201518160000160006101000a81548173ffffffffffffffffffffffffffffffffffffffff021916908373ffffffffffffffffffffffffffffffffffffffff16021790555060208201518160010155604082015181600201908051906020019061095f929190610ee6565b50606082015181600301908051906020019061097c929190610ee6565b506080820151816004019080519060200190610999929190610ee6565b5090505060013390806001815401808255809150509060018203906000526020600020016000909192909190916101000a81548173ffffffffffffffffffffffffffffffffffffffff021916908373ffffffffffffffffffffffffffffffffffffffff160217905550507f2119e22b3ee1c312d0404d3cafe44b0c927d96fe361b241cfef0828f397f4d283382846040015185606001518660800151604051808673ffffffffffffffffffffffffffffffffffffffff1673ffffffffffffffffffffffffffffffffffffffff168152602001858152602001806020018060200180602001848103845287818151815260200191508051906020019080838360005b83811015610ab5578082015181840152602081019050610a9a565b50505050905090810190601f168015610ae25780820380516001836020036101000a031916815260200191505b50848103835286818151815260200191508051906020019080838360005b83811015610b1b578082015181840152602081019050610b00565b50505050905090810190601f168015610b485780820380516001836020036101000a031916815260200191505b50848103825285818151815260200191508051906020019080838360005b83811015610b81578082015181840152602081019050610b66565b50505050905090810190601f168015610bae5780820380516001836020036101000a031916815260200191505b509850505050505050505060405180910390a15050505050565b6000806060806060610bd8610ea0565b6000808873ffffffffffffffffffffffffffffffffffffffff1673ffffffffffffffffffffffffffffffffffffffff16815260200190815260200160002060a060405190810160405290816000820160009054906101000a900473ffffffffffffffffffffffffffffffffffffffff1673ffffffffffffffffffffffffffffffffffffffff1673ffffffffffffffffffffffffffffffffffffffff16815260200160018201548152602001600282018054600181600116156101000203166002900480601f016020809104026020016040519081016040528092919081815260200182805460018160011615610100020316600290048015610d1b5780601f10610cf057610100808354040283529160200191610d1b565b820191906000526020600020905b815481529060010190602001808311610cfe57829003601f168201915b50505050508152602001600382018054600181600116156101000203166002900480601f016020809104026020016040519081016040528092919081815260200182805460018160011615610100020316600290048015610dbd5780601f10610d9257610100808354040283529160200191610dbd565b820191906000526020600020905b815481529060010190602001808311610da057829003601f168201915b50505050508152602001600482018054600181600116156101000203166002900480601f016020809104026020016040519081016040528092919081815260200182805460018160011615610100020316600290048015610e5f5780601f10610e3457610100808354040283529160200191610e5f565b820191906000526020600020905b815481529060010190602001808311610e4257829003601f168201915b505050505081525050905080600001518160200151826040015183606001518460800151829250819150809050955095509550955095505091939590929450565b60a060405190810160405280600073ffffffffffffffffffffffffffffffffffffffff168152602001600081526020016060815260200160608152602001606081525090565b828054600181600116156101000203166002900490600052602060002090601f016020900481019282601f10610f2757805160ff1916838001178555610f55565b82800160010185558215610f55579182015b82811115610f54578251825591602001919060010190610f39565b5b509050610f629190610f66565b5090565b610f8891905b80821115610f84576000816000905550600101610f6c565b5090565b905600a165627a7a723058200a32d154fb456a7dd73ee9ed19a6cf8e84cbfba528f2e60ce46e4a91b86980d60029",
    "source": "pragma solidity ^0.4.24;\n\n/**\n    The Sifrasia contract is the world where all the Cryptogotchi's live!\n */\ncontract Sifrasia {\n\n    // Cryptogotchi model\n    struct Cryptogotchi {\n        address owner;\n        uint index;\n        string name;\n        string description;\n        string colorHex;\n    }\n\n    // State\n    mapping (address => Cryptogotchi) cryptogotchis;\n    address[] cryptogotchisIndex;\n\n    // Events\n    event CryptogotchiHatched(address _owner, uint _index, string _name, string _description, string _colorHex);\n\n    // Functions\n\n    /**\n        Creates a new Cryptogotchi\n    */\n    function hatchCryptogotchi(string _name, string _description, string _colorHex) public {\n        require(bytes(cryptogotchis[msg.sender].name).length == 0, \"Sender already has a Cryptogotchi\");\n\n        // Create new Cryptogotchi\n        Cryptogotchi memory newCryptogotchi;\n        uint index = cryptogotchisIndex.length;\n        newCryptogotchi.index = index;\n        newCryptogotchi.owner = msg.sender;\n        newCryptogotchi.name = _name;\n        newCryptogotchi.description = _description;\n        newCryptogotchi.colorHex = _colorHex;\n\n        // Hatch it!\n        cryptogotchis[msg.sender] = newCryptogotchi;\n        cryptogotchisIndex.push(msg.sender);\n\n        // Emit event\n        emit CryptogotchiHatched(msg.sender, index, newCryptogotchi.name, newCryptogotchi.description, newCryptogotchi.colorHex);\n    }\n\n    /**\n        Gets a Cryptogotchi by the owner's address\n    */\n    function getCryptogotchiByAddress(address _owner) public view returns (address, uint, string, string, string) {\n        Cryptogotchi memory cryptogotchi = cryptogotchis[_owner];\n\n        return (cryptogotchi.owner, cryptogotchi.index, cryptogotchi.name, cryptogotchi.description, cryptogotchi.colorHex);\n    }\n\n    /**\n        Gets a Cryptogotchi by the index\n    */\n    function getCryptogotchiByIndex(uint _index) public view returns (address, uint, string, string, string) {\n        address owner = cryptogotchisIndex[_index];\n\n        return this.getCryptogotchiByAddress(owner);\n    }\n\n    /**\n        Gets total amount of Cryptogotchis living in Sifrasia\n    */\n    function getCryptogotchiPopulationTotal() public view returns (uint) {\n        return cryptogotchisIndex.length;\n    }\n\n}",
    "sourcePath": "/Users/luyzdeleon/current_projects/cryptogotchi/contracts/Sifrasia.sol",
    "compiler": {
        "name": "solc",
        "version": "0.4.24+commit.e67f0147.Emscripten.clang"
    },
    "schemaVersion": "2.0.1",
    "updatedAt": "2018-10-19T17:06:33.722Z"
}